:100000000C94C92B0C94FA2B0C94FA2B0C94FA2B0D
:100010000C94FA2B0C94FA2B0C94FA2B0C94FA2BCC
:100020000C94FA2B0C94FA2B0C94C49D0C94FA2B80
:100030000C94FA2B0D94E6120C94FA2B0C94FA2BD8
:100040000C94FA2B0C94E5B80C94FA2B0C94FA2B24
:100050000C94FA2B0C94FA2B0D94F1390D948C140A
:100060000C94FA2B0D948E030C94FA2B0C94FA2B0F
:100070000C94FA2B0C94FA2B0C94FA2B0C94FA2B6C
:100080000C94FA2B0C94FA2B0C94FA2B0C94FA2B5C
:100090000D944A030C94FA2B0C94FA2B0C94FA2B23
:1000A0000C94FA2B0C94FA2B0C94FA2B0C94FA2B3C
:1000B0000C94FA2B0C94FA2B0C94FA2B0C94FA2B2C
:1000C0000C94FA2B0C94FA2B0C94FA2B0D947106C9
:1000D0000C94FA2B0C94FA2B0C94FA2B0C94FA2B0C
:1000E0000C94FA2BB89BBC9BC29BCB9BE39B009CC4
:1000F0003D9C729CD7A7E0A7A1A78AA763A707A9E1
:1001000002A863A8EBA83B0135018B01390133013B
:10011000D701BD01E5014D01E3016101D301E70113
:10012000ED01D701FD01FB01A1013101B301750111
:10013000010289018301F101C5015D0155012D0114
:10014000C301A3014701830195018F012F016F01B5
:10015000F501BF01450167013D01A901AB0159014D
:10016000AD019101D101FF01CF018D0151017D014F
:10017000710153017901C1014301F9017B01C701FB
:10018000084AD73B3BCE016E84BCBFFDC12F3D6CFE
:1001900074319ABD56833DDA3D00C77F11BED9E464
:1001A000BB4C3E916BAAAABE000000803F05A84C44
:1001B000CDB2D44EB93836A9020C50B99186880810
:1001C0003CA6AAAA2ABE000000803F07634236B7B9
:1001D0009BD8A71A39685618AEBAAB558C1D3CB7D8
:1001E000CC5763BD6DEDFD753EF6177231BF000053
:1001F00000803F08000000BE922449123EABAAAA2C
:100200002ABECDCCCC4C3E00000080BEABAAAAAA30
:100210003E00000000BF000000803F000000000022
:10022000084178D3BB4387D1133D190E3CC3BD426F
:1002300082AD2B3E68EC8276BED98FE1A93E4C8020
:10024000EFFFBE01C4FF7F3F0000000000000D94DF
:100250008C1A0D94E81A0D94081B0D94F4130D9448
:1002600035140D94A8130D946A110D9471110D9409
:10027000931A0D9464110D946E110D94D11F0D9469
:10028000D05A0D94894D0D9481530D94991F0D945E
:1002900017140D940C5A0D94157B0D947F110D9429
:1002A000275B0D9433530D9467530D94EA130D940B
:1002B000114E0D9406200D947A4B0D94E0130D947D
:1002C000E3190D9487110D94795A0D944C5A0D949D
:1002D000A31F0D94CE110D9464120D94965A0D9493
:1002E000641F0D944B530D9452570D94B2130D94FB
:1002F000D01A0D946D530D949D530D9439530D9454
:10030000AB1A0D9456120D943F140D94DD110D94FB
:100310003B5A0D94C6130D9460110D9425530D9402
:100320002B140D940B200D9474280D9421140D940E
:1003300005570D94ED5A0D94CA570D9484200D94D1
:100340005B5A0D94A3110D940D140D94D4110D94BA
:100350000A5B0D94F21F0D94F81F0D9409200D9463
:10036000D8110D94F04C0D94AD130D94A41A0D9466
:10037000434D0D94611D0D9446180D9475110D9407
:100380008C1F0D9473530D94FE130D94D8130D947C
:10039000B4530D94EB1D0D94794B0D94CF4D0D94EA
:1003A00037200D9415200D948D110D94B46F0D947C
:1003B000A8110D9406400D94B35A0D94E54E0D947A
:1003C000F4000D94FE1A0D9483110D9479110D947F
:1003D00091110D9486590D949A1A0D9495110D94BE
:1003E000F41A0D94D0130D940D010D947A1F0D94F1
:1003F000661A0D948F530D949F110D949B110D94BB
:1004000026200D94BC136E616E00696E66004E412D
:100410004E494E495459494E46CDCCCC3D0AD7237E
:100420003C17B7D13877CC2B329595E6241FB14FC6
:100430000A000020410000C84200401C4620BCBE0B
:100440004CCA1B0E5AAEC59D7400407A10F35A0078
:10045000A0724E18090010A5D4E80000E8764817ED
:100460000000E40B54020000CA9A3B000000E1F5D2
:1004700005000080969800000040420F000000A098
:100480008601000000102700000000E803000000C3
:10049000006400000000000A0000000000010000ED
:1004A0000000002C76D888DC674F0823DFC1DFAE60
:1004B00059E1B1B796E5E3E453C63AE65199769629
:1004C000E8E6C28426EB898C9B62ED407C6FFCEFF2
:1004D000BC9C9F40F2BAA56FA5F490055A2AF75C20
:1004E000936B6CF9676DC11BFCE0E40D47FEF520D2
:1004F000E6B500D0ED902E0300943577050080849A
:100500001E080000204E0A000000C80C33333333AD
:100510000F986E12831141EF8D2114893BE6551619
:10052000CFFEE6DB18D1844B381BF77C1D901DA451
:10053000BBE424203284725E228100C9F124ECA144
:10054000E53D276364696E6F70737578585B0025AD
:1005500064206279746573207772697474656E20A3
:10056000746F20454550524F4D2061742061646482
:100570007265737320307825303478004433202D31
:1005800020526561642F5772697465204545505249
:100590004F4D0A0020436F756E7420583A20005367
:1005A00044207072696E74696E6720627974652088
:1005B000004E6F7420696E206661726D206D6F64ED
:1005C000652E0041637469766520457874727564A0
:1005D00065723A2000496E76616C696420657874B2
:1005E0007275646572005A204F66667365740055B3
:1005F0006E6B6E6F776E20636F6D6D616E643A2007
:1006000022004D32303020496E76616C696420657D
:100610007874727564657220007A5F6D61783A2033
:10062000007A5F6D696E3A2000795F6D696E3A20DD
:10063000006F70656E00545249474745524544006B
:10064000785F6D696E3A20005265706F7274696EE2
:100650006720656E6473746F702073746174757352
:10066000000053494C454E54004E4F524D414C00F2
:100670002553204D4F44453A2050657263656E7492
:1006800020646F6E653A2025643B207072696E7439
:100690002074696D652072656D61696E696E672091
:1006A000696E206D696E733A2025640A00456E6498
:1006B0002066696C65206C69737400426567696EB9
:1006C0002066696C65206C6973740025643A202586
:1006D000640A000A50494E44412074656D70657289
:1006E00061747572653A20252E3166205A20736830
:1006F00069667420286D6D293A20252E3366000A1C
:10070000537465703A2025642F360A000A537465C5
:10071000703A2025642F362028736B6970706564E9
:10072000290A50494E44412074656D7065726174A8
:100730007572653A202564205A20736869667420B2
:10074000286D6D293A300A000A5A45524F3A202541
:100750002E33660A0073746172742074656D70655F
:100760007261747572653A20252E31660A0025641F
:100770002020252E326600255320583A20252E357C
:100780006620593A20252E3566205A3A20252E35E6
:10079000660A00536C6565702E2E2E004E6F742015
:1007A000696E206661726D206D6F64652E00256430
:1007B0000045303A25642052504D0A50524E303A8E
:1007C00025642052504D0A002564004175746F0065
:1007D00020452F443D00416476616E6365204B3DAA
:1007E000004D3232302053256900255346696C6133
:1007F0006D656E742073657474696E67733A204416
:10080000697361626C65640A00255346696C616DA9
:10081000656E742073657474696E67733A0A255344
:100820002020204D3230302044252E32660A00250B
:1008300053526574726163743A20533D4C656E6720
:10084000746820286D6D2920463A537065656420D0
:10085000286D6D2F6D29205A3A205A4C69667420F4
:10086000286D6D290A25532020204D323037205322
:10087000252E32662046252E3266205A252E3266D7
:100880000A25535265636F7665723A20533D457869
:10089000747261206C656E67746820286D6D292004
:1008A000463A537065656420286D6D2F6D290A25C1
:1008B000532020204D3230382053252E32662046DA
:1008C000252E32660A25534175746F2D5265747258
:1008D0006163743A20533D3020746F206469736102
:1008E000626C652C203120746F20696E74657270A3
:1008F00072657420657874727564652D6F6E6C799D
:10090000206D6F7665732061732072657472616308
:100910007473206F72207265636F76657269657398
:100920000A25532020204D323039205325640A00F7
:10093000255350494420686561746265642073657D
:100940007474696E67733A0A25532020204D333042
:10095000342050252E32662049252E32662044252B
:100960002E32660A00255350494420736574746919
:100970006E67733A0A25532020204D3330312050C2
:10098000252E32662049252E32662044252E3266D9
:100990000A00255353746570732070657220756E5C
:1009A00069743A0A255320204D39322058252E32B9
:1009B000662059252E3266205A252E32662045257E
:1009C0002E32660A25534D6178696D756D20666516
:1009D0006564726174657320286D6D2F73293A0AFE
:1009E000255320204D3230332058252E3266205991
:1009F000252E3266205A252E32662045252E326657
:100A00000A25534D6178696D756D20616363656C6E
:100A100065726174696F6E20286D6D2F7332293A8B
:100A20000A255320204D3230312058256C7520592D
:100A3000256C75205A256C752045256C750A255343
:100A4000416363656C65726174696F6E3A20533DF2
:100A5000616363656C65726174696F6E2C20543DCF
:100A60007265747261637420616363656C65726141
:100A700074696F6E0A255320204D3230342053257F
:100A80002E32662054252E32660A25534164766143
:100A90006E636564207661726961626C65733A2089
:100AA000533D4D696E2066656564726174652028EA
:100AB0006D6D2F73292C20543D4D696E2074726129
:100AC00076656C20666565647261746520286D6D5D
:100AD0002F73292C20423D6D696E696D756D2073F1
:100AE00065676D656E742074696D6520286D732966
:100AF0002C20583D6D6178696D756D205859206ABC
:100B000065726B20286D6D2F73292C20205A3D6D46
:100B10006178696D756D205A206A65726B20286D49
:100B20006D2F73292C2020453D6D6178696D756DA1
:100B30002045206A65726B20286D6D2F73290A2568
:100B40005320204D3230352053252E326620542537
:100B50002E32662042252E32662058252E326620FF
:100B600059252E3266205A252E32662045252E32F2
:100B7000660A2553486F6D65206F6666736574203D
:100B8000286D6D293A0A255320204D3230362058E1
:100B9000252E32662059252E3266205A252E3266A1
:100BA0000A004625642025640A004D4D55203C3D31
:100BB0002027462564202564270A00504944204107
:100BC00075746F74756E652066696E6973686564A7
:100BD000212050757420746865206C617374204BFB
:100BE000702C204B6920616E64204B6420636F6E13
:100BF0007374616E74732066726F6D2061626F76BC
:100C00006520696E746F20436F6E666967757261E7
:100C100074696F6E2E6800504944204175746F747A
:100C2000756E65206661696C6564212074696D6507
:100C30006F75740020403A00543A00423A0050491F
:100C400044204175746F74756E65206661696C65CA
:100C500064212054656D70657261747572652074CD
:100C60006F6F206869676800204B643A2000204B52
:100C7000693A2000204B703A200020436C61737366
:100C800069632050494420002054753A2000204BCD
:100C9000753A2000206D61783A2000206D696E3A27
:100CA000200020643A200020626961733A2000200D
:100CB000453A00205A3A0020593A0020453A00208F
:100CC0005A3A0020593A00583A00002E0044656C08
:100CD0006574696F6E206661696C65642C20466975
:100CE0006C653A200046696C652064656C657465C6
:100CF000643A004E6F74205344207072696E7469B8
:100D00006E67005072696E7420736176656400537B
:100D100044207072696E7420706175736564000A96
:100D2000002F000A0022283229005400496E766103
:100D30006C6964205420636F64652E00556E6B6E81
:100D40006F776E204D20636F64653A202573200A0B
:100D5000006E6F2076616C696420636F6D6D616EEB
:100D600064002C20002C20002C20006E2F61002C11
:100D700020002C20002C20006E2F61002F00503A04
:100D8000005761697420666F722050494E444120BB
:100D90007461726765742074656D706572617475D5
:100DA00072653A004C414E472053454C20464F5205
:100DB0004345440022283129003030303030303073
:100DC000302D303030302D303030302D303030302C
:100DD0002D30303030303030303030303000205531
:100DE0005549443A00310020455854525544455223
:100DF0005F434F554E543A0050727573612069330A
:100E0000204D4B322E3500204D414348494E455F21
:100E1000545950453A00312E3000206261736564A8
:100E2000206F6E204D61726C696E204649524D579D
:100E30004152455F55524C3A68747470733A2F2F83
:100E40006769746875622E636F6D2F707275736158
:100E500033642F50727573612D4669726D776172BC
:100E6000652050524F544F434F4C5F5645525349A3
:100E70004F4E3A004649524D574152455F4E414D03
:100E8000453A50727573612D4669726D776172656E
:100E900020004D31313320530020423A0020453AA2
:100EA00000543A0020503A002042403A0020403A94
:100EB00000202F003A00205400202F0020423A004A
:100EC000202F006F6B20543A002569206D696E2C2D
:100ED0002025692073656300496E76616C69642022
:100EE0004D20636F64653A202573200A00556E6BB0
:100EF0006E6F776E204720636F64653A20257320FC
:100F00000A004D65736820626564206C6576656CC7
:100F1000696E67206E6F74206163746976652E0058
:100F20000A002020000A4D656173757265642070A7
:100F30006F696E74733A000A5A2073656172636850
:100F4000206865696768743A20002C004E756D2032
:100F5000582C593A2000206D6963726F6E730045FA
:100F6000786365737369766520626564206C657665
:100F7000656C696E6720636F7272656374696F6E0A
:100F80003A20004732382057300050494E44412023
:100F900070726F62652063616C6962726174696FFF
:100FA0006E20737461727400473238205730004DE0
:100FB0003234005072657373206B6E6F6220746FF1
:100FC0002070726568656174206E6F7A7A6C652036
:100FD000616E6420636F6E74696E75652E00506C6F
:100FE0006561736520707265737320746865206B2A
:100FF0006E6F6220746F20756E6C6F61642066691D
:101000006C616D656E740052656D6F7665206F6CF6
:10101000642066696C616D656E7420616E64207019
:101020007265737320746865206B6E6F6220746FD5
:10103000207374617274206C6F6164696E67206ED6
:1010400065772066696C616D656E742E00616E64F3
:1010500020707265737320746865206B6E6F620018
:10106000496E736572742066696C616D656E74009B
:10107000436F6C6F72206E6F7420636F7272656362
:10108000740046696C616D656E74206E6F74206CBF
:101090006F61646564004368616E67656420636FB7
:1010A00072726563746C793F004C6F6164696E673E
:1010B00020636F6C6F72004368616E6765207375A3
:1010C00063636573732100506C65617365206F7095
:1010D000656E2069646C657220616E642072656D56
:1010E0006F76652066696C616D656E74206D616EEA
:1010F00075616C6C792E005761732066696C616D47
:10110000656E7420756E6C6F6164207375636365C2
:10111000737366756C3F00506C6561736520757004
:1011200067726164652E004E6577206669726D771F
:101130006172652076657273696F6E206176616990
:101140006C61626C653A0057616974696E6720660C
:101150006F722050494E44412070726F6265206367
:101160006F6F6C696E6700457874727564657200A4
:1011700043686F6F73652065787472756465723A41
:101180000043686F6F73652066696C616D656E748E
:101190003A004E6F206D6F76652E0057616974209E
:1011A000666F7220757365722E2E2E00536F6D65FB
:1011B0002070726F626C656D20656E636F756E7402
:1011C000657265642C205A2D6C6576656C696E6756
:1011D00020656E666F72636564202E2E2E00537438
:1011E00061626C6520616D6269656E742074656D05
:1011F00070657261747572652032312D323643200C
:101200006973206E65656465642061207269676931
:1012100064207374616E64206973207265717569EE
:101220007265642E00506C656173652072756E2066
:1012300058595A2063616C6962726174696F6E20DB
:1012400066697273742E0058300A006164635F69C6
:101250006E69740A0000202D20496E76616C696405
:10126000206578747275646572206E756D62657242
:101270002021001B5B324A1B5B313B31484F7269B6
:1012800067696E616C2050727573612069331B5BF6
:10129000323B3348507275736120526573656172D9
:1012A000636800466163746F7279205245534554F8
:1012B00000505255534133444657004A616E203125
:1012C00035203230313900436F6D70696C65643A96
:1012D0002000286E6F6E652C2064656661756C74E5
:1012E00020636F6E66696729004A616E2031352080
:1012F000323031392030383A30353A313400203309
:101300002E352E312D313737380A007374617274DF
:10131000002055706C6F616420696E2070726F6779
:101320007265737300205A3A0020593A0020583AE7
:10133000004D3239005468657265206973207374FA
:10134000696C6C2061206E65656420746F206D612E
:101350006B65205A2063616C6962726174696F6E9B
:101360002E20506C6561736520666F6C6C6F772002
:10137000746865206D616E75616C2C2063686170A6
:101380007465722046697273742073746570732C6F
:101390002073656374696F6E2043616C696272616A
:1013A00074696F6E20666C6F772E005072696E7470
:1013B000657220686173206E6F74206265656E20AF
:1013C00063616C69627261746564207965742E2052
:1013D000506C6561736520666F6C6C6F7720746804
:1013E00065206D616E75616C2C2063686170746539
:1013F000722046697273742073746570732C207345
:10140000656374696F6E2043616C696272617469AF
:101410006F6E20666C6F772E004F6C64207365745E
:1014200074696E677320666F756E642E20446566FE
:1014300061756C74205049442C2045737465707339
:10144000206574632E2077696C6C2062652073655B
:10145000742E005761726E696E673A20626F74680D
:10146000207072696E746572207479706520616E87
:1014700064206D6F74686572626F61726420747944
:101480007065206368616E6765642E005761726ED7
:10149000696E673A207072696E7465722074797033
:1014A00065206368616E6765642E005761726E69BE
:1014B0006E673A206D6F74686572626F6172642046
:1014C00074797065206368616E6765642E00202002
:1014D000506C616E6E6572427566666572427974B3
:1014E00065733A20002046726565204D656D6F7208
:1014F000793A2000207C20417574686F723A200090
:10150000204C61737420557064617465643A2000E6
:1015100020536F667477617265205265736574003D
:10152000205761746368646F672052657365740047
:101530002042726F776E206F7574205265736574E8
:10154000002045787465726E616C20526573657415
:1015500000506F7765725570006572726F722077F8
:10156000726974696E6720746F2066696C650065C6
:101570006E6473746F7073206869743A2000446FEE
:101580006E6520736176696E672066696C652E00F2
:101590006F6B0058595A2063616C6962726174699B
:1015A0006F6E20616C6C2072696768742E20536BBB
:1015B00065772077696C6C20626520636F72726555
:1015C00063746564206175746F6D61746963616CC7
:1015D0006C792E0058595A2063616C69627261748B
:1015E000696F6E20616C6C2072696768742E205878
:1015F0002F5920617865732061726520736C69676B
:1016000068746C7920736B657765642E20476F6F03
:1016100064206A6F62210058595A2063616C6962C4
:10162000726174696F6E206F6B2E20582F59206184
:10163000786573206172652070657270656E64698B
:1016400063756C61722E20436F6E67726174756C86
:101650006174696F6E73210058595A2063616C6917
:1016600062726174696F6E206661696C65642E20B8
:1016700052696768742066726F6E742063616C696A
:1016800062726174696F6E20706F696E74206E6F24
:101690007420726561636861626C652E0058595AE6
:1016A0002063616C6962726174696F6E2066616942
:1016B0006C65642E2046726F6E742063616C696283
:1016C000726174696F6E20706F696E7473206E6FD3
:1016D0007420726561636861626C652E0058595AA6
:1016E0002063616C6962726174696F6E2066616902
:1016F0006C65642E20506C6561736520636F6E733A
:10170000756C7420746865206D616E75616C2E0057
:1017100058595A2063616C6962726174696F6E20F6
:10172000636F6D70726F6D697365642E20526967A7
:1017300068742066726F6E742063616C6962726196
:1017400074696F6E20706F696E74206E6F74207292
:101750006561636861626C652E0058595A20636147
:101760006C6962726174696F6E20636F6D70726F05
:101770006D697365642E2046726F6E742063616CB0
:101780006962726174696F6E20706F696E74732024
:101790006E6F7420726561636861626C652E0058BB
:1017A000595A2063616C6962726174696F6E206658
:1017B00061696C65642E204265642063616C6962B6
:1017C000726174696F6E20706F696E7420776173D7
:1017D000206E6F7420666F756E642E00506C6561AC
:1017E000736520706C61636520737465656C20732C
:1017F00068656574206F6E20686561746265642E2B
:101800000044697374616E63652062657477656511
:101810006E20746970206F6620746865206E6F7A20
:101820007A6C6520616E642074686520626564204E
:101830007375726661636520686173206E6F7420D2
:101840006265656E20736574207965742E20506C16
:101850006561736520666F6C6C6F772074686520B6
:101860006D616E75616C2C206368617074657220A7
:1018700046697273742073746570732C207365638A
:1018800074696F6E204669727374206C6179657239
:101890002063616C6962726174696F6E2E00506CB6
:1018A0006163652061207368656574206F662070D0
:1018B0006170657220756E64657220746865206E53
:1018C0006F7A7A6C6520647572696E6720746865DA
:1018D0002063616C6962726174696F6E206F66204B
:1018E0006669727374203420706F696E74732E2071
:1018F000496620746865206E6F7A7A6C6520636132
:101900007463686573207468652070617065722CFB
:1019100020706F776572206F66662074686520702E
:1019200072696E74657220696D6D65646961746554
:101930006C792E00506C656173652072656D6F76F1
:101940006520737465656C207368656574206672C4
:101950006F6D20686561746265642E004973207341
:101960007465656C207368656574206F6E206865AA
:1019700061746265643F00206F66203400536561C6
:10198000726368696E67206265642063616C696276
:10199000726174696F6E20706F696E7400206F667B
:1019A0002039004D6561737572696E6720726566D6
:1019B0006572656E636520686569676874206F6627
:1019C0002063616C6962726174696F6E20706F6907
:1019D0006E7400506C6561736520636C65616E2088
:1019E000746865206E6F7A7A6C6520666F7220630A
:1019F000616C6962726174696F6E2E20436C6963F9
:101A00006B207768656E20646F6E652E004175747B
:101A10006F20686F6D650078797A63616C5F6D65C2
:101A20006173737572655F656E7465720A007879AB
:101A30007A63616C5F73706972616C382063783DA2
:101A400025642063793D2564207A303D2564206437
:101A50007A3D2564207261646975733D2564206157
:101A6000643D25640A0078797A63616C5F7365610F
:101A70007263685A206E6F207369676E616C0A200A
:101A8000783D256C6420793D256C64207A3D256C79
:101A9000640A00204F4E2D5349474E414C2061743B
:101AA00020783D256420793D2564207A3D256420F9
:101AB00061643D25640A0078797A63616C5F7365BF
:101AC000617263685A20783D256C6420793D256CED
:101AD00064207A3D256C640A000A002530327800C3
:101AE00078797A63616C5F7363616E5F7069786542
:101AF0006C735F33327833322063783D2564206322
:101B0000793D2564206D696E5F7A3D2564206D61A5
:101B1000785F7A3D25640A00202532642025640A16
:101B2000000A002530327800206D696E3D25642062
:101B30006D61783D2564206469663D25640A006D09
:101B400061785F633D253264206D61785F6C3D256F
:101B5000640A006D61785F633D2564206D61785F84
:101B6000723D2564206D61785F6D617463683D2509
:101B7000640A0020783D256420793D2564207A3D63
:101B800025640A00207061747465726E20666F753A
:101B90006E642061742025642025640A000000F032
:101BA00000F801FC03FE07FE07FE07FE07FC03F832
:101BB00001F000000073697A656F6628746F7461C4
:101BC0006C293D25640A0073697A656F6628626C2A
:101BD0006F636B5F627566666572293D25640A00F6
:101BE00078797A63616C5F6D656173737572655F37
:101BF0006C656176650A00706F696E743D256420BE
:101C0000783D256420793D2564207A3D25640A00CD
:101C1000BC02BC02584D584DB004F055F055B0040C
:101C200078797A63616C5F66696E645F6265645F30
:101C3000696E64756374696F6E5F73656E736F72DE
:101C40005F706F696E745F787920783D256C6420D1
:101C5000793D256C64207A3D256C640A00203C2087
:101C6000005741524E494E473A2046726F6E7420DB
:101C7000706F696E74206E6F742072656163686145
:101C8000626C652E205920636F6F7264696E617497
:101C9000653A0000000040410000804000005C43C5
:101CA0000000804000005C430000444300004041CD
:101CB00000004443497465726174696F6E3A200094
:101CC00043616C6962726174696F6E206661696CF0
:101CD00065642120436865636B20746865206178C2
:101CE000657320616E642072756E20616761696E34
:101CF0002E005A206C6976652061646A75737420C1
:101D00006F7574206F662072616E67652E20536553
:101D10007474696E6720746F20302E20436C696381
:101D20006B20746F20636F6E74696E75652E005A38
:101D3000206C6976652061646A757374206F7574B0
:101D4000206F662072616E67652E2053657474691A
:101D50006E6720746F20300020423A0020453A0020
:101D6000543A00627573793A207061757365642026
:101D7000666F7220696E70757400627573793A20AF
:101D800070617573656420666F722075736572008B
:101D9000627573793A2070726F63657373696E67E9
:101DA0000000002110422063308440A550C660E747
:101DB00070088129914AA16BB18CC1ADD1CEE1EF00
:101DC000F13112100273325222B5529442F772D698
:101DD00062399318837BB35AA3BDD39CC3FFF3DE50
:101DE000E36224433420040114E664C774A44485E8
:101DF000546AA54BB528850995EEE5CFF5ACC58DA0
:101E0000D55336722611163006D776F6669556B437
:101E1000465BB77AA719973887DFF7FEE79DD7BCEF
:101E2000C7C448E5588668A7784008611802282387
:101E300038CCC9EDD98EE9AFF9488969990AA92B3F
:101E4000B9F55AD44AB77A966A711A500A333A12D7
:101E50002AFDDBDCCBBFFB9EEB799B588B3BBB1A8F
:101E6000ABA66C877CE44CC55C222C033C600C4127
:101E70001CAEED8FFDECCDCDDD2AAD0BBD688D49DF
:101E80009D977EB66ED55EF44E133E322E511E7077
:101E90000E9FFFBEEFDDDFFCCF1BBF3AAF599F782F
:101EA0008F8891A981CAB1EBA10CD12DC14EF16FE0
:101EB000E18010A100C230E3200450254046706745
:101EC00060B9839893FBA3DAB33DC31CD37FE35E71
:101ED000F3B1029012F322D2323542145277625695
:101EE00072EAB5CBA5A89589856EF54FE52CD50D81
:101EF000C5E234C324A014810466744764245405E5
:101F000044DBA7FAB79987B8975FE77EF71DC73C10
:101F1000D7D326F2369106B0165766767615463434
:101F2000564CD96DC90EF92FE9C899E9898AB9AB20
:101F3000A94458654806782768C018E1088238A384
:101F4000287DCB5CDB3FEB1EFBF98BD89BBBAB9AB0
:101F5000BB754A545A376A167AF10AD01AB32A92D4
:101F60003A2EFD0FED6CDD4DCDAABD8BADE89DC9C0
:101F70008D267C076C645C454CA23C832CE01CC124
:101F80000C1FEF3EFF5DCF7CDF9BAFBABFD98FF850
:101F90009F176E367E554E745E932EB23ED10EF074
:101FA0001E7C3C3E5E2B3D3F2F5B5D3B2C2A225C22
:101FB0000043757272656E740055736564206475B4
:101FC00072696E67207072696E74005049442063B4
:101FD000616C2E2066696E697368656400504944BF
:101FE0002063616C2E202020202020202020202013
:101FF00000506C656173652077616974004D313103
:1020000037204669727374206C6179657220636150
:102010006C2E005072696E74207061757365640077
:10202000496E76616C6964205049442063616C2E6E
:1020300020726573756C74732E204E6F74207374E8
:102040006F72656420746F20454550524F4D2E00CD
:102050004D353030004731205A313520463135304A
:102060003000473931004731205835302059313957
:102070003020453020463730303000473930004D71
:10208000373032004D3730322043004D3730322068
:1020900055004D373032004D373032204300473144
:1020A000205A31352046313530300047393100472C
:1020B00031205835302059313930204530204637CD
:1020C000303030004D383300473930004D3834005F
:1020D0004D313034205330004D3834004D373032DC
:1020E00020430047312058313020593138302046C4
:1020F00034303030004731205A31302046313330CF
:10210000302E303030004D313430205330004D31DE
:10211000303420533000473120452D302E303735B4
:1021200030302046323130302E3030303030004DBB
:10213000313037004731205835302059353520456A
:10214000332E363237373300473120583230302083
:102150005935352045302E34393338360047312053
:1021600058323030205937352045332E3632373704
:102170003300473120583530205937352045302E2F
:102180003439333836004731205835302059393505
:102190002045332E3632373733004731205832301E
:1021A00030205939352045302E3439333836004700
:1021B00031205832303020593131352045332E36D8
:1021C00032373733004731205835302059313135D7
:1021D0002045302E343933383600473120583530D9
:1021E00020593133352045332E36323737330047C7
:1021F00031205832303020593133352045302E3699
:10220000363137340047312058323030205931359B
:10221000352045322E36323737330047312058319A
:10222000303020593135352045320047312058377C
:102230003520593135352045322E3500473120467D
:1022400031303830004731205A302E313530204679
:10225000373230302E303030004731205835302082
:1022600059313535004731204634303030004D3259
:102270003034205331303030004731205A35204639
:10228000373230302E30303000473120452D312E5E
:1022900035303030302046323130302E3030303032
:1022A00030004D383300473930004732310047396C
:1022B000322045302E3000473120583130302E301A
:1022C000204531322E352046313030302E30004717
:1022D00031205836302E302045392E3020463130CE
:1022E00030302E300047312058352E302045342EE6
:1022F000302046313030302E30004731205A302ED9
:1023000032302046313030302E30004731205835C1
:10231000352E30204532352046313430302E3000D5
:10232000473120592D322E302046313030302E307A
:1023300000473120583234302E30204532352E308F
:10234000202046323230302E30004739322045309E
:102350002E30004731205A302E3320463130303075
:102360002E30004731205835352E302045382E305C
:102370002046323030302E300047312058352E3054
:10238000204533322E302046313830302E30004751
:1023900031205835352E30204533322E302046310D
:1023A0003037332E30004731205A302E342046311A
:1023B0003030302E3000473120592D332E3020461A
:1023C000313030302E30004D38330047393220451F
:1023D000302E3000473238004D3130392053323101
:1023E00035004D31393020533630004D31343020F6
:1023F000533630004D3130342053323135004D31B9
:102400003037006673656E736F725F73746F705FE1
:10241000616E645F736176655F7072696E740A00E5
:102420006673656E736F725F726573746F72655FEA
:102430007072696E745F616E645F636F6E74696EF3
:1024400075650A0044495341424C45440A00454ED3
:1024500041424C4544004653656E736F72202553CC
:102460000A00504154393132355F696E69743A253A
:102470006868750A00504154393132355F696E69B8
:10248000743A256868750A00504154393132352054
:102490006E6F7420726573706F6E64696E6720284A
:1024A000256429210A00000E1315110E00000004F6
:1024B000120912040000001C1F11111F0000000669
:1024C000191803130C00040E1F041C000000040A5A
:1024D0000A0A0A11110E001F1511151F0000000134
:1024E00003161C0800000000110A04110A040C1253
:1024F000120C000000002563252D313853256300A0
:102500006673656E736F725F6175746F6C6F616413
:102510005F636865636B5F7374617274202D206103
:1025200075746F6C6F616420454E41424C45440A9E
:10253000006673656E736F725F6175746F6C6F6147
:10254000645F636865636B5F73746F70202D2061D7
:1025500075746F6C6F61642044495341424C45442B
:102560000A002563252E3135533A2573253364003F
:10257000457872656D65207370616E206F6620749A
:102580006865205A2076616C75657321006F6B0A4F
:102590000073746172740A004D4D55322066697281
:1025A0006D776172652076657273696F6E20696EF2
:1025B00076616C69642E205265717569726564205C
:1025C00076657273696F6E3A206275696C64206E0D
:1025D000756D626572202564206F72206869676876
:1025E00065722E004D363030004D3630302041556A
:1025F000544F004653454E534F525F5245434F563A
:10260000455200256868750050300A0052300A00B3
:102610004525640A0055300A0043300A004C256401
:102620000A005425640A004D4D55202D20454E4189
:10263000424C454400256868750050300A004D3111
:102640000A004D4D552076657273696F6E20766174
:102650006C69640025750053320A002575004D4DE4
:1026600055206E6F7420726573706F6E64696E674B
:10267000202D2044495341424C45440053310A0027
:102680004D4D552073746172747320726573706F51
:102690006E64696E670A004D4D55206E6F7420722E
:1026A0006573706F6E64696E670A00426564206CC2
:1026B0006576656C696E67206661696C65642E205D
:1026C00053656E736F72206469646E7420747269EE
:1026D000676765722E20446562726973206F6E2091
:1026E0006E6F7A7A6C653F2057616974696E6720F6
:1026F000666F722072657365742E00506C6561732D
:102700006520757064617465206669726D776172A9
:102710006520696E20796F7572204D4D55322E20DF
:1027200057616974696E6720666F722072657365A0
:10273000742E004D4D55204F4B2E20526573756DF4
:10274000696E672E2E2E004D4D55204F4B2E205278
:102750006573756D696E6720706F736974696F6EEC
:102760002E2E2E004D4D55204F4B2E205265737549
:102770006D696E672074656D7065726174757265E0
:102780002E2E2E0046697820746865206973737553
:102790006520616E64207468656E20707265737365
:1027A00020627574746F6E206F6E204D4D552075CC
:1027B0006E69742E00507265737320746865206BA7
:1027C0006E6F6220746F20726573756D65206E6F19
:1027D0007A7A6C652074656D706572617475726566
:1027E0002E004D4D55206E656564732075736572BE
:1027F00020617474656E74696F6E2E0025632533D5
:10280000642F256425630020003E003E0020003E2A
:10281000003E0054656D7065726174757265206369
:10282000616C6962726174696F6E206661696C6562
:10283000642E20436F6E74696E75652077697468C5
:10284000207072657373696E6720746865206B6EA3
:102850006F622E0054656D706572617475726520CB
:1028600063616C6962726174696F6E20646F6E651A
:102870002E20436F6E74696E7565207769746820C9
:102880007072657373696E6720746865206B6E6F14
:10289000622E005A30005A31005930005931005828
:1028A0003000583100456E642073746F707320647B
:1028B0006961670054656D70657261747572652039
:1028C00063616C6962726174696F6E206661696CC4
:1028D00065640054656D706572617475726520631E
:1028E000616C6962726174696F6E206973206669D8
:1028F0006E697368656420616E64206163746976D3
:10290000652E2054656D702E2063616C6962726162
:1029100074696F6E2063616E206265206469736103
:10292000626C656420696E206D656E7520536574F8
:1029300074696E67732D3E54656D702E2063616CF3
:102940002E004578747275646572004D6F7665204F
:102950005A004D6F76652059004D6F7665205800FE
:102960004175746F6C6F6164696E672066696C6134
:102970006D656E7420617661696C61626C65206F53
:102980006E6C79207768656E2066696C616D656E26
:10299000742073656E736F72206973207475726E24
:1029A0006564206F6E2E2E2E004552524F523A20F3
:1029B00046696C616D656E742073656E736F72200D
:1029C0006973206E6F7420726573706F6E64696EC8
:1029D000672C20706C6561736520636865636B208C
:1029E000636F6E6E656374696F6E2E0024F4D4306D
:1029F00050C38E20C2A24017828B7011127A910DA3
:102A0000816CD90AA861E108C7586607615143067D
:102A10001E4B5D05C145A7041A411104093D9803E9
:102A2000713931034036DB0265339102D4305402F0
:102A3000802E1D02632CEE01752AC501B028A0016D
:102A4000102781018F2564012B244B01E0223401E2
:102A5000AC211F018D200D01801FFC00841EED00A4
:102A6000971DDF00B81CD200E61BC600201BBC006F
:102A7000641AB200B219A8000A19A0006A189900D5
:102A8000D117910040178B00B516840031167E00D7
:102A9000B31579003A157300C7146F0058146A0013
:102AA000EE1366008813630025135E00C7125B00F7
:102AB0006C12570015125400C111510070114F00D3
:102AC00021114B00D61049008D10470046104400DC
:102AD00002104200C00F4000800F3E00420F3C0039
:102AE000060F3B00CB0E3800930E37005C0E35000E
:102AF000270E3400F30D3200C10D3100900D30006F
:102B0000600D2E00320D2D00050D2C00D90C2B0070
:102B1000AE0C2900850C29005C0C2700350C270021
:102B20000E0C2600E80B2400C40B2400A00B23008D
:102B30007D0B23005A0B2100390B2100180B2000BC
:102B4000F80A1F00D90A1E00BB0A1E009D0A1D00BC
:102B5000800A1D00630A1C00470A1B002C0A1B0088
:102B6000110A1A00F7091A00DD091900C409190031
:102B7000AB091900920917007B09180063091700B7
:102B80004C09160036091600200916000A0915001E
:102B9000F5081500E0081400CC081400B80814006B
:102BA000A4081400900813007D0812006B0813009D
:102BB00058081200460812003408110023081100BA
:102BC0001208110001081100F0071000E0071000C2
:102BD000D0071000C0071000B0070F00A1071000B9
:102BE00091070E0083070F0074070F0065070E00A2
:102BF00057070E0049070E003B070D002E070E0079
:102C000020070D0013070D0006070D00F9060C0044
:102C1000ED060D00E0060C00D4060C00C8060C0002
:102C2000BC060C00B0060C00A4060B0099060C00B4
:102C30008D060B0082060B0077060B006C060B005E
:102C400061060A0057060B004C060A0042060A00FD
:102C500038060A002E060A0024060A001A060A0090
:102C60001006090007060A00FD050900F405090021
:102C7000EB050900E2050900D9050900D0050900A6
:102C8000C7050900BE050900B5050800AD05080027
:102C9000A50509009C050800940508008C0508009E
:102CA000840508007C050800740508006C05070011
:102CB000650508005D050700560508004E0507007C
:102CC00047050700400508003805070031050700E3
:102CD0002A050700230507001C0506001605070046
:102CE0000F0507000805060002050700FB040600A3
:102CF000F5040700EE040600E8040600E2040700FD
:102D0000DB040600D5040600CF040600C904060053
:102D1000C3040600BD040600B7040600B1040500A4
:102D2000AC040600A6040600A00405009B040600EF
:102D300095040500900406008A040500850405003A
:102D4000800406007A04050075040500700405007F
:102D50006B04050066040500610405005C040500C1
:102D600057040500520405004D0405004804050001
:102D7000430405003E0404003A0405003504050040
:102D8000300404002C04050027040400230405007B
:102D90001E0404001A0404001604050011040400B3
:102DA0000D040400090405000404040000040400E8
:102DB000FC030400F8030400F4030400F00304001F
:102DC000EC030400E8030400E4030400E00304004F
:102DD000DC030400D8030400D4030400D00304007F
:102DE000CC030400C8030300C503030024F404D982
:102DF000201BC40C5C0E9804C4095F0265077101B6
:102E0000F405F900FB04B30048048700C10369001E
:102E10005803550003034500BE023A008402310006
:102E200053022A002902250004022000E4011C00AC
:102E3000C8011900AF0117009801140084011300A4
:102E4000710110006101100051010E0043010D00DD
:102E500036010B002B010B0020010B0015010900AE
:102E60000C01090003010800FB000800F300080042
:102E7000EB000700E4000600DE000600D8000600B4
:102E8000D2000600CC000500C7000500C200050006
:102E9000BD000400B9000400B5000400B100040046
:102EA000AD000400A9000400A5000300A200030077
:102EB0009F0004009B00030098000300950002009F
:102EC00093000300900003008D0002008B000300BC
:102ED00088000200860002008400030081000200D6
:102EE0007F0002007D0002007B00020079000200EA
:102EF00077000100760002007400020072000100F9
:102F0000710002006F0002006D0001006C00020001
:102F10006A0001006900020067000100660001000C
:102F20006500010064000200620001006100010010
:102F3000600001005F0002005D0001005C00010014
:102F40005B0001005A000100590001005800010017
:102F50005700010056000100550001005400010017
:102F60005300000053000100520001005100010015
:102F7000500001004F0001004E0000004E00010013
:102F80004D0001004C0001004B0000004B0001000F
:102F90004A0001004900010048000000480001000B
:102FA0004700010046000000460001004500000007
:102FB00045000100440001004300000043000100FF
:102FC00042000000420001004100000041000100F9
:102FD000400001003F0000003F0001003E000000F3
:102FE0003E0001003D0000003D0001003C000000EB
:102FF0003C0000003C0001003B0000003B000100E1
:103000003A0000003A0001003900000039000100D8
:1030100038000000380000003800010037000000D0
:1030200037000100360000003600000036000100C5
:1030300035000000350000003500010034000000BC
:1030400034000000340001003300000033000000B1
:1030500033000100320000003200000032000100A5
:10306000310000003100000031000100300000009C
:1030700030000000300001002F0000002F00000091
:103080002F0000002F0001002E0000002E00000085
:103090002E0001002D0000002D0000002D0000007A
:1030A0002D0001002C0000002C0000002C0000006E
:1030B0002C0001002B0000002B0000002B00000062
:1030C0002B0001002A0000002A0000002A00000056
:1030D0002A0001002900000029000000290000004A
:1030E000290000002900010028000000280000003D
:1030F0002800000028000000280001002700000030
:103100002700000027000000270000002700010022
:103110002600000026000000260000002600000017
:103120002600010025000000250000002500000009
:1031300025000000250000002500010024000000FB
:1031400024000000240000002400000024000100EE
:1031500023000000230000002300000023000000E3
:1031600023000000230000002300010022000000D3
:1031700022000000220000002200000022000000C7
:1031800022000100210000002100000021000000B9
:1031900021000000210000002100000021000100AA
:1031A000200000002000000020000000200000009F
:1031B000200000002000000020000000200001008E
:1031C0001F0000001F0000001F0000001F00000083
:1031D0001F0000001F0000001F0001001E00000073
:1031E0001E0000001E0000001E0000000000803FC6
:1031F000555585410000803F0000C8410000004057
:10320000555505420000C03F0000484200002040E4
:1032100055558542000070C1ABAAA642000060C1AE
:103220000000A0410000C0C000002041000020417B
:10323000ABAA3A41000020C15555D540000048C214
:10324000555505424D373031204530004D3730312E
:10325000204531004D373031204532004D37303177
:10326000204533004D373031204534004D37303163
:10327000204534004D373031204533004D37303153
:10328000204532004D373031204531004D37303147
:103290002045300046696C616D656E74206E722049
:1032A0006F7574206F662072616E67652100506CC7
:1032B000656173652072656D6F76652066696C6106
:1032C0006D656E7420616E64207468656E20707226
:1032D00065737320746865206B6E6F622E00456A9B
:1032E000656374696E672066696C616D656E7400F4
:1032F00020746F6F206C6F6E6720657874727573C1
:10330000696F6E2070726576656E74656400206307
:103310006F6C6420657874727573696F6E2070725B
:103320006576656E7465640046696E697368696E7A
:1033300067206D6F76656D656E747300536F756E83
:10334000642020202020205B6C6F75645D00536F2B
:10335000756E642020202020205B6D7574655D00F3
:10336000536F756E64202020205B73696C656E74EA
:103370005D00536F756E642020202020205B6F6EEF
:1033800063655D00536F756E642020202020205BF4
:103390006C6F75645D004D6F6465205B6175746F63
:1033A00020706F7765725D004D6F6465202020206E
:1033B000205B73696C656E745D004D6F6465205BA6
:1033C0006869676820706F7765725D0046696C2E6A
:1033D0002073656E736F7220205B6F6E5D004669AF
:1033E0006C2E2073656E736F72205B6F66665D0076
:1033F0004368616E67652066696C616D656E740017
:10340000466C6F770053706565640046616E20738B
:103410007065656400426564004E6F7A7A6C650081
:1034200053657474696E6773005072696E742061BD
:10343000626F7274656400596573004E6F00537457
:103440006F70207072696E740046696C6520696ED9
:10345000636F6D706C6574652E20436F6E74696E5A
:10346000756520616E797761793F004D61696E0005
:103470004D363030004D3234004D3233202573004C
:10348000052E2E0043616E6E6F7420656E7465723A
:10349000207375626469723A2000526573656E64C8
:1034A0000025533A20256C640A25530A00207964CC
:1034B0005F6D696E3D25752079645F6D61783D258E
:1034C000752079645F6176673D25752073685F615B
:1034D00076673D25750A002073745F73756D3D2511
:1034E000752079645F73756D3D25752065725F7316
:1034F000756D3D25752065725F6D61783D25686845
:10350000750A00004B494C4C45442E20005072690E
:103510006E7465722068616C7465642E206B696CD2
:103520006C28292063616C6C656421004B494C4C0C
:103530003A2025640A004D31303420496E76616CA2
:10354000696420657874727564657220004D31304D
:103550003520496E76616C69642065787472756493
:10356000657220004D31303920496E76616C696496
:1035700020657874727564657220004D3231382090
:10358000496E76616C6964206578747275646572E1
:1035900020004D32323120496E76616C69642065BD
:1035A0007874727564657220006673656E736F72ED
:1035B0005F6F715F6D656173737572655F73746F53
:1035C000702C20256868752073616D706C65730AB6
:1035D000006673656E736F725F6F715F6D656173A7
:1035E000737572655F73746172740A004D363030A2
:1035F000004653454E534F525F5245434F56455236
:10360000006673656E736F725F75706461746520B8
:103610002D204D3630300A006673656E736F725F11
:103620006572725F636E74203D20300A004731205E
:103630004533204632303000473120452D33204677
:10364000323030004D3730310020573A0020453AB3
:1036500000543A0048656174696E6720646973615B
:10366000626C656420627920736166657479207488
:10367000696D65722E002563252E3132533A25730C
:10368000252B30362E3166002020202020202020BF
:10369000202020202020202020202020003E003E2E
:1036A0000020003E003E0020001F1F1F1F1F1F1F85
:1036B0001F2E002E004E6F7720667265736820669D
:1036C000696C653A20004E6F7720646F696E6720E1
:1036D00066696C653A20002220706F7300222070AA
:1036E0006172656E743A2200535542524F555449E7
:1036F0004E452043414C4C207461726765743A22F8
:1037000000747279696E6720746F2063616C6C203D
:103710007375622D67636F64652066696C657320DD
:103720007769746820746F6F206D616E79206C65A5
:1037300076656C732E204D4158206C6576656C2043
:1037400069733A0053442063617264206F6B006FA9
:1037500070656E526F6F74206661696C6564007687
:103760006F6C756D652E696E6974206661696C6534
:103770006400534420696E6974206661696C005767
:10378000726974696E6720746F2066696C653A208F
:103790000046696C652073656C6563746564002020
:1037A00053697A653A200046696C65206F70656ED2
:1037B00065643A2000536F7274696E672066696CA5
:1037C000657300536F6D652066696C65732077695A
:1037D0006C6C206E6F7420626520736F7274656408
:1037E0002E204D61782E204E6F2E206F6620666948
:1037F0006C657320696E203120666F6C6465722081
:10380000666F7220736F7274696E672069732031FE
:1038100030302E004D373032004D37303100457892
:10382000747275646572006D6D000059005800581F
:103830000059005A002563252E3132533A2573254D
:103840002B30362E33660046696C616D656E7420D0
:10385000657874727564696E67202620776974686C
:1038600020636F727265637420636F6C6F723F00C8
:103870005072656865617420746865206E6F7A7A2D
:103880006C6521004552524F523A004175746F6C7D
:103890006F6164696E672066696C616D656E742026
:1038A0006973206163746976652C206A757374206E
:1038B000707265737320746865206B6E6F6220612F
:1038C0006E6420696E736572742066696C616D65E3
:1038D0006E742E2E2E00546F74616C207072696E9F
:1038E000742074696D6500546F74616C2066696C36
:1038F000616D656E74005072696E742074696D65D7
:103900000046696C616D656E742075736564005264
:1039100069676874004C6566740059206469737443
:10392000616E63652066726F6D206D696E00536510
:103930007665726520736B657700536C6967687490
:1039400020736B6577004D656173757265642073D4
:103950006B6577005B303B305D20706F696E742063
:103960006F66667365740041646A757374696E6727
:10397000205A005265736574005265617220736944
:103980006465205B756D5D0046726F6E74207369AF
:1039900064655B756D5D0052696768742073696466
:1039A000655B756D5D004C656674207369646520A8
:1039B0005B756D5D005365742074656D7065726133
:1039C000747572653A00417265206C656674206199
:1039D0006E64207269676874205A7E6361727269CE
:1039E0006167657320616C6C2075703F0043616C8A
:1039F0006962726174696E672058595A2E20526F3D
:103A00007461746520746865206B6E6F6220746FDA
:103A1000206D6F766520746865205A20636172722C
:103A20006961676520757020746F20746865206512
:103A30006E642073746F70706572732E20436C69AE
:103A4000636B207768656E20646F6E652E0043613E
:103A50006C6962726174696E67205A2E20526F74AD
:103A600061746520746865206B6E6F6220746F20CE
:103A70006D6F766520746865205A20636172726983
:103A800061676520757020746F2074686520656EAD
:103A9000642073746F70706572732E20436C696359
:103AA0006B207768656E20646F6E652E001B5B323D
:103AB0004A2553203A1B5B313B394825382E326664
:103AC000206D0A2553203A0A25376C6464203A2574
:103AD0003268686468203A253032686864206D0076
:103AE0001B5B324A25533A1B5B313B364825382E47
:103AF00032666D200A2553203A1B5B333B3848253C
:103B000032646820253032646D20253032647300C1
:103B100025362E32666D6D004E2F41001B5B303B0B
:103B2000304825533A0A25530A25533A0A25533A71
:103B3000001B5B303B3135484E2F41001B5B303B57
:103B400031354825342E326601001B5B303B30484E
:103B500025533A0A25530A25533A202025352E327B
:103B600066010A25533A202025352E32660100458C
:103B7000303A20005A3A2000593A2000583A2000A2
:103B80004D53312C4D53322050696E730A004572EB
:103B9000723A205052494E542046414E20455252CE
:103BA0004F52005072696E742066616E20737065AA
:103BB0006564206973206C6F776572207468656E28
:103BC000206578706563746564004572723A2045BB
:103BD0005854522E2046414E204552524F520045D5
:103BE000787472756465722066616E2073706565A5
:103BF00064206973206C6F776572207468656E202D
:103C00006578706563746564002F2F206163746943
:103C10006F6E3A70617573650070012C0190012719
:103C200001B0012201C0011D01F0011801100213B1
:103C30000130020E016002090190020401C002FF7E
:103C4000000003FA004003F5008003F000D003EB0E
:103C5000002004E6007004E100E004DC004005D729
:103C600000C005D2004006CD00D006C8008007C3C2
:103C7000003008BE00F008B900C009B400B00AAFB7
:103C800000B00BAA00D00CA500000EA000500F9BA6
:103C900000C01096005012910000148C00C01587CF
:103CA00000B0178200B0197D00D01B7800001E7391
:103CB0000040206E0090226900F024640040275FDD
:103CC0000090295A00E02B5500102E500020304B58
:103CD0000010324600E033410090353C0010373789
:103CE0000070383200A0392D00B03A2800A03B23E4
:103CF00000603C1E00103D1900903D1400103E0F66
:103D000000703E0A00C03E0500003F0000504154D4
:103D1000393132355F5245535F593D256868750A20
:103D200000504154393132355F5245535F583D257B
:103D30006868750A00555341525432207278204603
:103D4000756C6C2121210A0053657474696E677368
:103D50002053746F7265640053746F7265642073CE
:103D6000657474696E6773207265747269657665CF
:103D7000640048617264636F6465642044656661D1
:103D8000756C742053657474696E6773204C6F6131
:103D900064656400563200000000C8420000C8425A
:103DA0000000C843000005430000484300004843AA
:103DB000000040410000F042E8030000E80300007A
:103DC000C80000008813000000409C4400409C4450
:103DD0000000000000000000204E00000000204114
:103DE00000002041CDCCCC3E00002040000000006F
:103DF0000000000000000000CDCCCC3E3D0A814117
:103E0000FF08433EB099AB438F42FC42E65A343F31
:103E10004C62B04500000000004040000034420009
:103E20000000000000000000000041000000E03F32
:103E300000002C4300002C43000040410000F042F1
:103E4000C0030000C0030000C80000008813000089
:103E500022206661696C65643A2042756666657207
:103E60002066756C6C21002200256920686F7572D0
:103E700073202569206D696E757465730054494D12
:103E8000454F55543A004D3131300046756C6C2029
:103E900052582042756666657200656E7175656977
:103EA0006E67202200446F6E65207072696E7469BF
:103EB0006E672066696C65005072696E7465722069
:103EC00073746F707065642064756520746F20650D
:103ED00072726F72732E204669782074686520654F
:103EE00072726F7220616E6420757365204D39396E
:103EF0003920746F20726573746172742E20285497
:103F0000656D706572617475726520697320726584
:103F10007365742E2053657420697420616674651E
:103F2000722072657374617274696E6729004E6FD6
:103F3000204C696E65204E756D62657220776974DC
:103F40006820636865636B73756D2C204C617374B6
:103F5000204C696E653A20004E6F20436865636BA4
:103F600073756D2077697468206C696E65206E7555
:103F70006D6265722C204C617374204C696E653AD9
:103F80002000636865636B73756D206D69736D6187
:103F90007463682C204C617374204C696E653A2000
:103FA000004C696E65204E756D62657220697320E4
:103FB0006E6F74204C617374204C696E65204E7571
:103FC0006D6265722B312C204C617374204C696ECC
:103FD000653A200053544F505045442E20000000B5
:103FE000000000110A042079303D25640A00207881
:103FF000303D25640A004F4B0A004552524F522073
:1040000061643D25640A002020207A303D25640A41
:1040100000207A303D25640A002079303D25640A6D
:10402000002078303D25640A0078797A63616C5FFE
:1040300066696E645F706F696E745F63656E7465E8
:1040400072320A0000002100240027002A002D00FF
:104050003000330001010000040107010A010000E3
:1040600020002300260029002C002F003200000130
:10407000000003010601090100000A0B02090C0DF2
:104080000E0807030401000000000000000000000B
:104090000000000000000000000000000000000020
:1040A00000000000121110000000000000000000DD
:1040B0000000000000000000000000000000000000
:1040C0000000000000000000000000000000457239
:1040D000726F72202D20737461746963206D656D39
:1040E0006F727920686173206265656E206F7665F6
:1040F000727772697474656E0043617264207265D0
:104100006D6F766564004361726420696E736572D9
:1041100074656400473830004D3435004D34352027
:104120005A004737360057697A61726420737461A8
:1041300074653A2025640044697361626C65206689
:1041400061726D206D6F6465004661726D206E75E1
:104150006D626572004D3834004D3434004732389A
:1041600020570043616C69627261746500506C6530
:10417000617365206C6F616420504C412066696CEE
:10418000616D656E742066697273742E00497320C8
:10419000504C412066696C616D656E74206C6F6176
:1041A0006465643F0043616E63656C0046696C61E1
:1041B0006D656E740053656C65637420504C4120CE
:1041C00066696C616D656E743A0052756E6E696EEB
:1041D000672057697A6172642077696C6C20646526
:1041E0006C6574652063757272656E742063616CB2
:1041F0006962726174696F6E20726573756C747335
:1042000020616E642073746172742066726F6D2019
:1042100074686520626567696E6E696E672E2043FB
:104220006F6E74696E75653F005072656865617484
:10423000696E67206E6F7A7A6C652E20506C6561AE
:10424000736520776169742E00456A656374005553
:104250006E6C6F61640055736520756E6C6F616480
:1042600020746F2072656D6F76652066696C616D74
:10427000656E7420312069662069742070726F74D5
:104280007275646573206F757473696465206F66F9
:10429000207468652072656172204D4D55207475DB
:1042A00062652E2055736520656A656374206966B2
:1042B0002069742069732068696464656E20696E82
:1042C00020747562652E004C6F6164696E672066AC
:1042D000696C616D656E7400506C65617365206911
:1042E0006E7365727420504C412066696C616D6517
:1042F0006E7420746F2074686520657874727564BC
:1043000065722C207468656E207072657373206B03
:104310006E6F6220746F206C6F61642069742E0070
:10432000506C6561736520696E7365727420504CC2
:10433000412066696C616D656E7420746F207468CD
:10434000652066697273742074756265206F6620DB
:104350004D4D552C207468656E2070726573732006
:10436000746865206B6E6F6220746F206C6F61647F
:104370002069742E00596F752063616E20616C771F
:1043800061797320726573756D6520746865205757
:10439000697A6172642066726F6D2043616C696234
:1043A000726174696F6E202D3E2057697A61726464
:1043B0002E00506C6561736520636865636B206FC8
:1043C00075722068616E64626F6F6B20616E64202D
:1043D000666978207468652070726F626C656D2EF6
:1043E000205468656E20726573756D65207468650C
:1043F0002057697A617264206279207265626F6FFA
:1044000074696E6720746865207072696E74657275
:104410002E00416C6C20697320646F6E652E2048FD
:1044200061707079207072696E74696E67210050D6
:104430006C6561736520636C65616E20686561748D
:1044400062656420616E64207468656E20707265B8
:10445000737320746865206B6E6F622E00446F204A
:10446000796F752077616E7420746F207265706546
:104470006174206C617374207374657020746F2094
:10448000726561646A7573742064697374616E63C4
:1044900065206265747765656E206E6F7A7A6C65EB
:1044A00020616E6420686561746265643F00492024
:1044B00077696C6C20737461727420746F207072F1
:1044C000696E74206C696E6520616E6420796F7509
:1044D0002077696C6C206772616475616C6C7920FF
:1044E0006C6F77657220746865206E6F7A7A6C6580
:1044F00020627920726F746174696E6720746865D8
:10450000206B6E6F622C20756E74696C20796F75EC
:10451000207265616368206F7074696D616C2068DA
:1045200065696768742E20436865636B20746865ED
:1045300020706963747572657320696E206F75727F
:104540002068616E64626F6F6B20696E20636861C2
:10455000707465722043616C6962726174696F6E18
:104560002E004E6F7720492077696C6C2063616C58
:104570006962726174652064697374616E63652039
:104580006265747765656E20746970206F6620744B
:104590006865206E6F7A7A6C6520616E642068654C
:1045A000617462656420737572666163652E00498B
:1045B0007320697420504C412066696C616D656E92
:1045C000743F0053656C656374206E6F7A7A6C6516
:1045D00020707265686561742074656D70657261C4
:1045E00074757265207768696368206D61746368AB
:1045F000657320796F7572206D6174657269616C85
:104600002E004E6F7720492077696C6C20707265A0
:1046100068656174206E6F7A7A6C6520666F7220AF
:10462000504C412E0049732066696C616D656E7453
:10463000206C6F616465643F0049732066696C613A
:104640006D656E742031206C6F616465643F004E4F
:104650006F7720492077696C6C207072656865619E
:1046600074206E6F7A7A6C6520666F7220504C41B0
:104670002E00492077696C6C2072756E207A206359
:10468000616C6962726174696F6E206E6F772E0063
:104690004E6F772072656D6F766520746865207443
:1046A000657374207072696E742066726F6D20730A
:1046B0007465656C2073686565742E00506C656167
:1046C00073652072656D6F766520736869707069B7
:1046D0006E672068656C70657273206669727374AA
:1046E0002E00492077696C6C2072756E2078797A7B
:1046F0002063616C6962726174696F6E206E6F779E
:104700002E2049742077696C6C2074616B65206180
:104710007070726F782E203132206D696E732E00AA
:1047200046697273742C20492077696C6C2072750D
:104730006E207468652073656C667465737420748C
:104740006F20636865636B206D6F737420636F6D9A
:104750006D6F6E20617373656D626C792070726F1E
:10476000626C656D732E0048692C204920616D20B4
:10477000796F7572204F726967696E616C20507233
:10478000757361206933207072696E7465722E20B2
:10479000576F756C6420796F75206C696B65206D3F
:1047A0006520746F20677569646520796F75207462
:1047B00068726F75676820746865207365747570BA
:1047C0002070726F636573733F0053706F6F6C4A34
:1047D0006F696E2020205B4E2F415D0053706F6F1C
:1047E0006C4A6F696E2020205B6F66665D005370B7
:1047F0006F6F6C4A6F696E202020205B6F6E5D00CA
:10480000536F756E642020202020205B6C6F7564D0
:104810005D00536F756E642020202020205B6D7535
:1048200074655D00536F756E64202020205B736992
:104830006C656E745D00536F756E642020202020BF
:10484000205B6F6E63655D00536F756E6420202082
:104850002020205B6C6F75645D00536F72743A208A
:1048600020202020205B6E6F6E655D00536F727498
:104870003A20205B616C7068616265745D00536F03
:1048800072743A2020202020205B74696D655D00E1
:104890005344206361726420205B6E6F726D616CA3
:1048A0005D0053442063617264205B666C736841F1
:1048B00069725D0054656D702E2063616C2E20203E
:1048C000205B6F6E5D0054656D702E2063616C2EF1
:1048D00020205B6F66665D0046616E7320636865CD
:1048E000636B20205B6F66665D0046616E732063BC
:1048F0006865636B2020205B6F6E5D00462E206133
:1049000075746F6C6F6164205B6F66665D00462E28
:10491000206175746F6C6F616420205B6F6E5D0049
:10492000462E206175746F6C6F6164205B4E2F4161
:104930005D0046696C2E2073656E736F72205B4E4E
:104940002F415D0044697361626C6520737465700A
:1049500070657273004D6F766520617869730054DD
:10496000656D70657261747572650054656D702E49
:104970002063616C6962726174696F6E0052657365
:1049800065742058595A2063616C6962722E005315
:10499000686F7720656E642073746F707300504980
:1049A000442063616C6962726174696F6E00426574
:1049B00064206C6576656C20636F72726563740049
:1049C0004D65736820426564204C6576656C696E40
:1049D000670043616C696272617465205A004361CB
:1049E0006C6962726174652058595A0053656C662F
:1049F0007465737420202020202020202000466928
:104A0000727374206C617965722063616C2E00573B
:104A1000697A6172640057697A61726420656E64B4
:104A20002073746174653A2025640A004D323400A5
:104A30004D3233202573006175746F25692E670030
:104A400022206661696C65643A204275666665720B
:104A50002066756C6C2100456E717565696E672006
:104A6000746F207468652066726F6E743A2022003D
:104A70004572726F723A002200456E717565696EFB
:104A80006720746F207468652066726F6E743A20B8
:104A900022006563686F3A00454550524F4D2045EE
:104AA00072726F7200436F6E74696E7565207769FC
:104AB000746820616E6F7468657220626F776465D8
:104AC0006E3F0025002020202020200020202020D4
:104AD00020200045524153494E4720616C6C2064B0
:104AE00061746100466163746F7279205245534569
:104AF000540000007A43000052430000524300007B
:104B00000000000080C09A99193E000000000000DB
:104B100080C09A99193E46696C616D656E74206F0C
:104B20007574206F662072616E6765202564200AA7
:104B30000067636F64655F4D373031206265676978
:104B40006E0A00332E352E31007263006265746187
:104B500000616C706861006465760078797A6361E1
:104B60006C5F73706972616C322063783D256420DC
:104B700063793D2564207A303D256420647A3D25A3
:104B800064207261646975733D25642061643D250C
:104B9000640A000102102020080810204010204064
:104BA00080020102010804020101020408102040F1
:104BB000808040201008040201800402018040200F
:104BC0001008040201080402010102040810204038
:104BD0008001020408102040801008040880102082
:104BE000400440801020400480000022002500285E
:104BF000002B002E003100340002010000050108E6
:104C0000010B010505050507050808080802020251
:104C1000020A0A0808040404040101010101010157
:104C2000010303030303030303040707070C0C0C2E
:104C30000C0C0C0C0C020202020606060606060606
:104C4000060B0B0B0B0B0B0B0B07070A0A0A0A0AC6
:104C50000A0505050404040808022E006F70656E3D
:104C6000206661696C65642C2046696C653A200099
:104C700020484F54454E4420544845524D414C2005
:104C800052554E41574159002048454154424544F0
:104C900020544845524D414C2052554E41574159A0
:104CA00000544845524D414C2052554E41574159B0
:104CB0000042454420544845524D414C2052554EE7
:104CC000415741590020544845524D414C205255BE
:104CD0004E415741592028205052454845415420C3
:104CE000484F54454E44290020544845524D414CAC
:104CF0002052554E41574159202820505245484591
:104D000041542048454154424544290050524548A9
:104D1000454154204552524F520042454420505282
:104D20004548454154204552524F52004572723A0F
:104D3000204D415854454D50003A204578747275C5
:104D4000646572207377697463686564206F666652
:104D50002E204D415854454D502074726967676547
:104D60007265642021004572723A204D41585445C5
:104D70004D50204245440054656D706572617475F4
:104D8000726520686561746564206265642073776C
:104D9000697463686564206F66662E204D415854BF
:104DA000454D502074726967676572656420210003
:104DB0004572723A204D494E54454D50003A2045B7
:104DC000787472756465722073776974636865645A
:104DD000206F66662E204D494E54454D502074720A
:104DE000696767657265642021004572723A204DDB
:104DF000494E54454D50204245440054656D706500
:104E0000726174757265206865617465642062659D
:104E100064207377697463686564206F66662E200A
:104E20004D494E54454D50207472696767657265EF
:104E3000642021001000C90210012C014001220150
:104E400070011801B0010E01F00104015002FA00D6
:104E5000B002F0003003E600D003DC009004D20082
:104E60007005C800A006BE000008B400B009AA0082
:104E7000D00BA000600E960060118C00001582001F
:104E800020197800C01D6E00A0226400B0275A00CF
:104E9000902C500000314600E0343C0010383200C5
:104EA000903A2800603C1E00A03D1400803E0A009D
:104EB000203F00003A200020202020202020202019
:104EC0002020202020202020202000203A20002008
:104ED00020202020202020202020202020202020D2
:104EE00020202000202020202020202020202020E2
:104EF000200025730025632533642F256425630076
:104F00005A25362E326620005A2020202D2D2D20A5
:104F10000025632533642525002D2D2D00253368BC
:104F2000686400253353253373252500555342000B
:104F300020202000205344002025753E25750020A8
:104F40004625750020463020200025632D2D3A2D62
:104F50002D202000256325337568202563256300F7
:104F60002563253032753A25303275256325630077
:104F700050494E44412048656174696E670054652C
:104F80006D702E2063616C2E202020202020202098
:104F900020200043616C6962726174696F6E2064E5
:104FA0006F6E650043616C6962726174696E67203F
:104FB0005A0042656420646F6E6500426564204853
:104FC000656174696E670048656174696E67206425
:104FD0006F6E652E0048656174696E670057616980
:104FE00074696E6720666F72206E6F7A7A6C6520C6
:104FF000616E642062656420636F6F6C696E670028
:105000004E6F74207370696E6E696E6700537069BD
:105010006E6E696E670053656C66207465737420EC
:105020004F4B0053656C6620746573742073746114
:1050300072742020004D3834004731205A31352019
:105040004631303030004732382057006C63645F9F
:1050500073656C66636865636B5F6178697320254F
:10506000642C2025640A0047393900446973616261
:105070006C65206661726D206D6F64653F004368EA
:105080006F6F736520636F6C6F723A004D3730320B
:105090002043004661726D206E756D626572004C32
:1050A0006F61642066696C616D656E742035004CBB
:1050B0006F61642066696C616D656E742034004CAC
:1050C0006F61642066696C616D656E742033004C9D
:1050D0006F61642066696C616D656E742032004C8E
:1050E0006F61642066696C616D656E742031004C7F
:1050F0006F616420616C6C004C6F61642066696C48
:10510000616D656E742035004C6F61642066696C5A
:10511000616D656E742034004C6F61642066696C4B
:10512000616D656E742033004C6F61642066696C3C
:10513000616D656E742032004C6F61642066696C2D
:10514000616D656E74203100456A6563742066691F
:105150006C616D656E74203500456A656374206608
:10516000696C616D656E74203400456A65637420F6
:1051700066696C616D656E74203300456A656374A1
:105180002066696C616D656E74203200456A6563E6
:10519000742066696C616D656E74203100506C65B9
:1051A0006173652070756C6C206F75742066696C16
:1051B000616D656E7420696D6D6564696174656C9F
:1051C0007900556E6C6F6164696E672066696C6109
:1051D0006D656E7400526573756D696E67207072CF
:1051E000696E7400537570706F7274004661696CFB
:1051F00020737461747300537461746973746963A8
:105200007320200043616C6962726174696F6E0083
:105210004175746F4C6F61642066696C616D656E79
:105220007400556E6C6F61642066696C616D656EAB
:105230007400456A6563742066696C616D656E749F
:10524000004C6F616420746F206E6F7A7A6C650019
:105250004C6F61642066696C616D656E74004E6FA1
:105260002053442063617264005072696E7420663A
:10527000726F6D20534400526573756D65207072B6
:10528000696E74005061757365207072696E740088
:10529000507265686561740054756E65004C69767E
:1052A000652061646A757374205A00496E666F20C8
:1052B00073637265656E0046696C616D656E74201E
:1052C00073656E736F72005377617070656400462A
:1052D000726F6E742F6C6566742066616E73004128
:1052E0007869730041786973206C656E6774680033
:1052F0004C6F6F73652070756C6C6579004C6566DA
:105300007420686F74656E642066616E3F0046723B
:105310006F6E74207072696E742066616E3F004516
:105320006E6473746F70206E6F74206869740045CA
:105330006E6473746F70004D6F746F7200456E64AD
:1053400073746F707300576972696E67206572724B
:105350006F7200426564202F204865617465720099
:105360004E6F7420636F6E6E65637465640048658C
:10537000617465722F546865726D6973746F720021
:10538000506C6561736520636865636B203A0053F8
:10539000656C6674657374206572726F722021008B
:1053A00046696C616D656E742073656E736F723AD9
:1053B000005072696E742066616E3A0045787472AE
:1053C000756465722066616E3A0053656C6674653B
:1053D0007374206661696C6564202000416C6C20E8
:1053E000636F727265637420202020202000436860
:1053F00065636B696E672073656E736F72732000EF
:10540000436865636B696E672062656420202020B5
:105410002000436865636B696E67205A2061786974
:1054200073202000436865636B696E6720592061B3
:10543000786973202000436865636B696E67205844
:105440002061786973202000436865636B696E672B
:1054500020686F74656E64202000436865636B6923
:105460006E6720656E6473746F70730046616E20A2
:1054700074657374002D2D2D2D2D2D2D2D2D2D2D7D
:105480002D2D2D2D2D2D2D2D2D0043616C6962723A
:105490006174696E6720686F6D650046696C2E20C7
:1054A00058643A2533642059643A2533640A496EB6
:1054B000743A202533642020536875743A202533CC
:1054C000640046696C616D656E742073656E736F00
:1054D000720A69732064697361626C65642E001BD3
:1054E0005B303B304825533A202534642052504DE0
:1054F0000A25533A20202534642052504D0A00508A
:1055000072696E742046414E004E6F7A7A6C652047
:1055100046414E00426564004E6F7A7A6C650043E6
:105520006F6F6C646F776E0054656D706572617437
:105530007572657300457874727564657220696E62
:10554000666F0058595A2063616C2E20646574613F
:10555000696C7300756E6B6E6F776E004D4D5532D2
:1055600020636F6E6E656374656400446174653AB0
:1055700000686F77746F2E707275736133642E6379
:105580006F6D00666F72756D2E7072757361336426
:105590002E636F6D00707275736133642E636F6D6F
:1055A000001B5B303B30484C617374207072696E35
:1055B00074206661696C757265731B5B313B3148A1
:1055C00046696C616D2E2072756E6F757473202044
:1055D000252D33641B5B323B3048546F74616C2063
:1055E0006661696C757265731B5B333B3148466954
:1055F0006C616D2E2072756E6F7574732020252D71
:105600003364001B5B323B314850494E44413A20E1
:1056100020202025642563001B5B303B3148255347
:105620003A202020256425631B5B313B31482553FC
:105630003A2020202020202564256300464C455830
:10564000202D20203234302F3530005050202020A3
:105650002D20203235342F3130300048495053202E
:105660002D20203232302F31303000414253202063
:105670002D20203235352F31303000504554202038
:105680002D20203233302F383500504C4120202D32
:1056900020203231352F3630004142532020202047
:1056A0002D20203235352F313030006E6F7A7A6CF4
:1056B00065202D20203235302F30006661726D203C
:1056C00020202D20203235302F343000466C61737D
:1056D0006841697220495020416464723A004D4D1E
:1056E0005532202020202020204E2F410025642EDE
:1056F00025642E25642D2564002046573A004A6112
:105700006E203135203230313900453344763666EB
:10571000756C6C0052414D426F31306100315F3722
:10572000356D6D5F4D4B3235002D2D2D2D2D2D2DD1
:105730002D2D2D2D2D0020332E352E312D313737A7
:1057400038004669726D776172653A0025642E25CE
:10575000642E25642E2564005072757361206933B0
:10576000204D4B322E352072656164792E006F6BAF
:105770000A000000A0400000A0400000004000001F
:105780007A43000056439AD95143FFFFFF004B0173
:10579000D50111241FBECFEFD1E2DEBFCDBF00E0A7
:1057A0000CBF16E0A0E0B2E0E6EDF1E203E00BBFD3
:1057B00002C007900D92A036B107D9F729E1A0E603
:1057C000B6E001C01D92A836B207E1F71BE2C8ECB3
:1057D000DBE200E006C021970109802FFE010F9453
:1057E0000190C73CD10780E00807A9F70F946765CF
:1057F0000D94DA900C9400002F923F924F925F929A
:105800006F927F928F929F92AF92BF92CF92DF92D0
:10581000EF92FF920F931F93CF93DF93CDB7DEB735
:10582000C458D1090FB6F894DEBF0FBECDBF80912A
:105830008D0F90918E0F892B11F40C94DD6882E00E
:1058400090E090931E0280931D0283E193E00F94F9
:105850001F018823B1F080918309909184096AE245
:1058600070E005960F945890009711F0DC011C929F
:10587000809183099091840905960F94D5190C9411
:105880000E6488E193E00F941F01882321F00E94A9
:1058900063A00C940E6488E293E00F941F018823A8
:1058A00009F4AFC18EE293E00F941F01882391F0B9
:1058B00080913909882311F40C940E640F9480149C
:1058C00060936E1270936F128093701290937112A6
:1058D0000C940E6483E393E00F941F01882349F036
:1058E0008091B8078F938091B7078F9388EC97E0EA
:1058F0003DC087E393E00F941F01882329F1409175
:105900002C1950912D192CE3249FC001259F900D37
:1059100011249F938F9340912A1950912B19249F02
:10592000C001259F900D11249F938F9381EB97E0E9
:105930009F938F930F942F860F900F900F900F903F
:105940000F900F900C940E648BE393E00F941F0163
:105950008823C9F080913909882391F08091D3067A
:105960008F938091D2068F938EEA97E09F938F93C7
:105970000F942F860F900F900F900F900C940E6441
:105980008CE997E0E2C08EE393E00F941F01882337
:1059900021F01092D0060C940E6482E493E00F94F0
:1059A0001F01882361F060E085EA9FE00F948A8AF6
:1059B00061E08FEA9FE00F94A00D0C940E6487E4E1
:1059C00093E00F941F01882331F087E492E10E9455
:1059D0002FA70C940E648EE493E00F941F0188238C
:1059E00071F080913909882321F00D9400F00C9416
:1059F0000E6484E593E00F9409050C940E6486E62A
:105A000093E00F941F01882339F1809183099091CD
:105A1000840941E061E003960E9439E48091A21478
:105A20009091A314A091A414B091A51480934F1544
:105A300090935015A0935115B09352158AE994E1B3
:105A40000E94C6838C010F94D2030A30110531F7EE
:105A50000F94FB2D0C940E6489E693E00F941F01C4
:105A6000882381F00F94BA2981E08093E306809126
:105A700083099091840941E060E004960E9439E432
:105A80000C940E648DE693E00F941F01882309F4B3
:105A900060C080913909882309F455C01092D1065D
:105AA00060916219709163198BE390E00F94AE8559
:105AB000609162197091631983E590E00F94AE854F
:105AC00019821B821A820F9480147B836A8381E07F
:105AD000898300E010E0FF24F394809153089091B3
